{
  "_format": "hh-sol-artifact-1",
  "contractName": "MultiSigWallet",
  "sourceName": "contracts/MultiSigWallet.sol",
  "abi": [
    {
      "inputs": [
        {
          "internalType": "address[]",
          "name": "_signers",
          "type": "address[]"
        }
      ],
      "stateMutability": "nonpayable",
      "type": "constructor"
    },
    {
      "inputs": [],
      "name": "REQUIRED",
      "outputs": [
        {
          "internalType": "uint256",
          "name": "",
          "type": "uint256"
        }
      ],
      "stateMutability": "view",
      "type": "function"
    },
    {
      "inputs": [
        {
          "internalType": "bytes32",
          "name": "",
          "type": "bytes32"
        },
        {
          "internalType": "address",
          "name": "",
          "type": "address"
        }
      ],
      "name": "approvals",
      "outputs": [
        {
          "internalType": "bool",
          "name": "",
          "type": "bool"
        }
      ],
      "stateMutability": "view",
      "type": "function"
    },
    {
      "inputs": [
        {
          "internalType": "address",
          "name": "target",
          "type": "address"
        },
        {
          "internalType": "bytes",
          "name": "data",
          "type": "bytes"
        }
      ],
      "name": "execute",
      "outputs": [],
      "stateMutability": "nonpayable",
      "type": "function"
    },
    {
      "inputs": [
        {
          "internalType": "uint256",
          "name": "",
          "type": "uint256"
        }
      ],
      "name": "signers",
      "outputs": [
        {
          "internalType": "address",
          "name": "",
          "type": "address"
        }
      ],
      "stateMutability": "view",
      "type": "function"
    }
  ],
  "bytecode": "0x608060405234801561001057600080fd5b50604051610d8f380380610d8f833981810160405281019061003291906102c1565b806000908051906020019061004892919061004f565b505061030a565b8280548282559060005260206000209081019282156100c8579160200282015b828111156100c75782518260006101000a81548173ffffffffffffffffffffffffffffffffffffffff021916908373ffffffffffffffffffffffffffffffffffffffff1602179055509160200191906001019061006f565b5b5090506100d591906100d9565b5090565b5b808211156100f25760008160009055506001016100da565b5090565b6000604051905090565b600080fd5b600080fd5b600080fd5b6000601f19601f8301169050919050565b7f4e487b7100000000000000000000000000000000000000000000000000000000600052604160045260246000fd5b6101588261010f565b810181811067ffffffffffffffff8211171561017757610176610120565b5b80604052505050565b600061018a6100f6565b9050610196828261014f565b919050565b600067ffffffffffffffff8211156101b6576101b5610120565b5b602082029050602081019050919050565b600080fd5b600073ffffffffffffffffffffffffffffffffffffffff82169050919050565b60006101f7826101cc565b9050919050565b610207816101ec565b811461021257600080fd5b50565b600081519050610224816101fe565b92915050565b600061023d6102388461019b565b610180565b905080838252602082019050602084028301858111156102605761025f6101c7565b5b835b8181101561028957806102758882610215565b845260208401935050602081019050610262565b5050509392505050565b600082601f8301126102a8576102a761010a565b5b81516102b884826020860161022a565b91505092915050565b6000602082840312156102d7576102d6610100565b5b600082015167ffffffffffffffff8111156102f5576102f4610105565b5b61030184828501610293565b91505092915050565b610a76806103196000396000f3fe608060405234801561001057600080fd5b506004361061004c5760003560e01c80631cff79cd146100515780632079fb9a1461006d57806324f6c7761461009d57806367fdff26146100cd575b600080fd5b61006b600480360381019061006691906105b8565b6100eb565b005b6100876004803603810190610082919061064e565b610478565b604051610094919061068a565b60405180910390f35b6100b760048036038101906100b291906106db565b6104b7565b6040516100c49190610736565b60405180910390f35b6100d56104e6565b6040516100e29190610760565b60405180910390f35b6000805b6003811015610179576000818154811061010c5761010b61077b565b5b9060005260206000200160009054906101000a900473ffffffffffffffffffffffffffffffffffffffff1673ffffffffffffffffffffffffffffffffffffffff163373ffffffffffffffffffffffffffffffffffffffff160361016e57600191505b8060010190506100ef565b50806101ba576040517f08c379a00000000000000000000000000000000000000000000000000000000081526004016101b190610807565b60405180910390fd5b60008484846040516020016101d1939291906108ae565b6040516020818303038152906040528051906020012090506001600082815260200190815260200160002060003373ffffffffffffffffffffffffffffffffffffffff1673ffffffffffffffffffffffffffffffffffffffff16815260200190815260200160002060009054906101000a900460ff1615610287576040517f08c379a000000000000000000000000000000000000000000000000000000000815260040161027e90610924565b60405180910390fd5b600180600083815260200190815260200160002060003373ffffffffffffffffffffffffffffffffffffffff1673ffffffffffffffffffffffffffffffffffffffff16815260200190815260200160002060006101000a81548160ff0219169083151502179055506000805b60038110156103b6576001600084815260200190815260200160002060008083815481106103245761032361077b565b5b9060005260206000200160009054906101000a900473ffffffffffffffffffffffffffffffffffffffff1673ffffffffffffffffffffffffffffffffffffffff1673ffffffffffffffffffffffffffffffffffffffff16815260200190815260200160002060009054906101000a900460ff16156103ab5781806103a790610973565b9250505b8060010190506102f3565b50600281106104705760008673ffffffffffffffffffffffffffffffffffffffff1686866040516103e89291906109bb565b6000604051808303816000865af19150503d8060008114610425576040519150601f19603f3d011682016040523d82523d6000602084013e61042a565b606091505b505090508061046e576040517f08c379a000000000000000000000000000000000000000000000000000000000815260040161046590610a20565b60405180910390fd5b505b505050505050565b6000818154811061048857600080fd5b906000526020600020016000915054906101000a900473ffffffffffffffffffffffffffffffffffffffff1681565b60016020528160005260406000206020528060005260406000206000915091509054906101000a900460ff1681565b600281565b600080fd5b600080fd5b600073ffffffffffffffffffffffffffffffffffffffff82169050919050565b6000610520826104f5565b9050919050565b61053081610515565b811461053b57600080fd5b50565b60008135905061054d81610527565b92915050565b600080fd5b600080fd5b600080fd5b60008083601f84011261057857610577610553565b5b8235905067ffffffffffffffff81111561059557610594610558565b5b6020830191508360018202830111156105b1576105b061055d565b5b9250929050565b6000806000604084860312156105d1576105d06104eb565b5b60006105df8682870161053e565b935050602084013567ffffffffffffffff811115610600576105ff6104f0565b5b61060c86828701610562565b92509250509250925092565b6000819050919050565b61062b81610618565b811461063657600080fd5b50565b60008135905061064881610622565b92915050565b600060208284031215610664576106636104eb565b5b600061067284828501610639565b91505092915050565b61068481610515565b82525050565b600060208201905061069f600083018461067b565b92915050565b6000819050919050565b6106b8816106a5565b81146106c357600080fd5b50565b6000813590506106d5816106af565b92915050565b600080604083850312156106f2576106f16104eb565b5b6000610700858286016106c6565b92505060206107118582860161053e565b9150509250929050565b60008115159050919050565b6107308161071b565b82525050565b600060208201905061074b6000830184610727565b92915050565b61075a81610618565b82525050565b60006020820190506107756000830184610751565b92915050565b7f4e487b7100000000000000000000000000000000000000000000000000000000600052603260045260246000fd5b600082825260208201905092915050565b7f4e6f742061207369676e65720000000000000000000000000000000000000000600082015250565b60006107f1600c836107aa565b91506107fc826107bb565b602082019050919050565b60006020820190508181036000830152610820816107e4565b9050919050565b60008160601b9050919050565b600061083f82610827565b9050919050565b600061085182610834565b9050919050565b61086961086482610515565b610846565b82525050565b600081905092915050565b82818337600083830152505050565b6000610895838561086f565b93506108a283858461087a565b82840190509392505050565b60006108ba8286610858565b6014820191506108cb828486610889565b9150819050949350505050565b7f416c726561647920617070726f76656400000000000000000000000000000000600082015250565b600061090e6010836107aa565b9150610919826108d8565b602082019050919050565b6000602082019050818103600083015261093d81610901565b9050919050565b7f4e487b7100000000000000000000000000000000000000000000000000000000600052601160045260246000fd5b600061097e82610618565b91507fffffffffffffffffffffffffffffffffffffffffffffffffffffffffffffffff82036109b0576109af610944565b5b600182019050919050565b60006109c8828486610889565b91508190509392505050565b7f45786563206661696c6564000000000000000000000000000000000000000000600082015250565b6000610a0a600b836107aa565b9150610a15826109d4565b602082019050919050565b60006020820190508181036000830152610a39816109fd565b905091905056fea264697066735822122029b774c9ed20ac421cd2ab77542e48477d7bf9126fecbe5a7485c694b037b6d964736f6c634300081c0033",
  "linkReferences": {},
  "deployedLinkReferences": {}
}